:100000000C942A000C943F000C943F000C943F0089
:100010000C943F000C943F000C943F000C943F0064
:100020000C943F000C943F000C943F000C943F0054
:100030000C943F000C943F000C943F000C943F0044
:100040000C943F000C943F000C943F000C943F0034
:100050000C943F0011241FBECFE5D4E0DEBFCDBF1E
:1000600010E0A0E6B0E0E6E0F4E002C005900D92FA
:10007000AC3AB107D9F70E947E010C9401020C94AE
:10008000000084B38F7084BBAA9AA99881E08A95F6
:10009000F1F721E0AB9A822F8A95F1F783B3922F83
:1000A0009A95F1F7AB98922F9A95F1F7AB9A922F18
:1000B0009A95F1F793B3922F9A95F1F7AB98922F07
:1000C0009A95F1F787FDE6CFAA9884B3806F84BB39
:1000D0000895382F662311F4A99801C0A99A21E048
:1000E000822F8A95F1F7AB9A85B3932F907F8F700B
:1000F000982B95BB822F8A95F1F7AB98822F8A9522
:10010000F1F7AB9A85B33295307F8F70832B85BB27
:10011000822F8A95F1F7AB982A95F1F70E9441005A
:100120000895883230F461118064806860E00E9434
:1001300069000895EF92FF920F931F93DF93CF937F
:1001400000D000D00F92CDB7DEB79C018B01FE012D
:10015000319685E0DF011D928A95E9F7FE0135961B
:100160000DC0C9016AE070E00E94DA018083C90114
:100170006AE070E00E94DA019B0131972115310598
:1001800081F7BFEF0F3F1B0779F420E030E0AE01AD
:100190004F5F5F4F02C02F5F3F4FFA01E20FF31F27
:1001A00080818823C1F304C025E030E0201B310B9F
:1001B0007E010894E11CF11CE20EF31E890109C0C6
:1001C000F70181917F01805D61E00E9469000F5F0E
:1001D0001F4F05301105A4F30F900F900F900F9053
:1001E0000F90CF91DF911F910F91FF90EF900895A5
:1001F000CF93DF93EC0104C061E00E946900219677
:1002000088818823C9F7DF91CF9108958CE49DE11F
:100210000197F1F784B3806F84BBA39AA19AA29A45
:1002200085B38F7085BBAB98AA98A99881E0982F69
:100230009A95F1F7AB9AAD9A982F9A95F1F7AB98FA
:100240008A95F1F70E9441008FE060E00E9469000A
:1002500088E260E00E946900089580E488BB80E243
:1002600082BB80E060E00E94910080E690E00E9406
:10027000F800089580E488BB80E182BB80E060E004
:100280000E9491008EE690E00E94F800089580E8B8
:1002900088BB80E282BB80E060E00E9491008DE735
:1002A00090E00E94F800089518BA12BA80E060E069
:1002B0000E9491008CE890E00E94F800089589B9AE
:1002C00090BD86E880BD88E18AB908955F9BFECF26
:1002D0008CB108955D9BFECF8CB9089540E020E07D
:1002E00030E0C9010197F1F7C9010197F1F7C901A0
:1002F0000197F1F74F5F4233A1F708950F931F93D2
:10030000CF93DF938EEF81BB8FEF87BB0E940601F7
:1003100083E389B910BC86E880BD88E18AB981E0B1
:1003200060E00E94690080E060E00E9491008BE93B
:1003300090E00E94F80080E49CE90197F1F781E0E9
:1003400060E00E94690081B3806381BB08EA11E626
:10035000C4EDD0E35F9BFECF2CB1C8010197F1F74C
:10036000822F807F8036B1F72F705F9BFECF9CB1CC
:10037000892F807F803E71F7892F8295807F822B25
:10038000823039F0833041F0813089F40E942D01B0
:1003900005C00E94470102C00E943A01CE010197A8
:1003A000F1F70E945401CE010197F1F7D3CF0E94DB
:1003B0005401D0CF97FB092E07260AD077FD04D031
:1003C0000CD006D000201AF4709561957F4F0895E7
:1003D000F6F7909581959F4F0895AA1BBB1B51E19D
:1003E00007C0AA1FBB1FA617B70710F0A61BB70BA5
:1003F000881F991F5A95A9F780959095BC01CD014A
:060400000895F894FFCFFF
:100406003E3E20666F7277617264203C3C003E3E41
:100416002020206C65667420203C3C3C003E3E203B
:1004260020726967687420203C3C3C003E3E3E20BA
:100436002073746F7020203C3C3C00496E697469DF
:0C044600616C6973696E672E2E2E000039
:00000001FF
